{
  "contractName": "EducationPlatform",
  "abi": [
    {
      "anonymous": false,
      "inputs": [
        {
          "indexed": false,
          "internalType": "string",
          "name": "_courseName",
          "type": "string"
        },
        {
          "indexed": false,
          "internalType": "uint256",
          "name": "cost",
          "type": "uint256"
        },
        {
          "indexed": false,
          "internalType": "uint256",
          "name": "_seatsAvailable",
          "type": "uint256"
        },
        {
          "indexed": false,
          "internalType": "uint256",
          "name": "courseId",
          "type": "uint256"
        }
      ],
      "name": "LogCourseAdded",
      "type": "event"
    },
    {
      "anonymous": false,
      "inputs": [
        {
          "indexed": false,
          "internalType": "string",
          "name": "name",
          "type": "string"
        },
        {
          "indexed": false,
          "internalType": "string",
          "name": "desc",
          "type": "string"
        },
        {
          "indexed": false,
          "internalType": "uint256",
          "name": "universityId",
          "type": "uint256"
        }
      ],
      "name": "LogUniversityAdded",
      "type": "event"
    },
    {
      "anonymous": false,
      "inputs": [
        {
          "indexed": true,
          "internalType": "address",
          "name": "previousOwner",
          "type": "address"
        },
        {
          "indexed": true,
          "internalType": "address",
          "name": "newOwner",
          "type": "address"
        }
      ],
      "name": "OwnershipTransferred",
      "type": "event"
    },
    {
      "constant": true,
      "inputs": [],
      "name": "UserIdGenerator",
      "outputs": [
        {
          "internalType": "uint256",
          "name": "",
          "type": "uint256"
        }
      ],
      "payable": false,
      "stateMutability": "view",
      "type": "function"
    },
    {
      "constant": true,
      "inputs": [],
      "name": "isOwner",
      "outputs": [
        {
          "internalType": "bool",
          "name": "",
          "type": "bool"
        }
      ],
      "payable": false,
      "stateMutability": "view",
      "type": "function"
    },
    {
      "constant": true,
      "inputs": [
        {
          "internalType": "address",
          "name": "",
          "type": "address"
        }
      ],
      "name": "mapUniversity",
      "outputs": [
        {
          "internalType": "uint256",
          "name": "id",
          "type": "uint256"
        },
        {
          "internalType": "string",
          "name": "name",
          "type": "string"
        },
        {
          "internalType": "string",
          "name": "description",
          "type": "string"
        },
        {
          "internalType": "string",
          "name": "website",
          "type": "string"
        },
        {
          "internalType": "string",
          "name": "phoneNumber",
          "type": "string"
        },
        {
          "internalType": "bool",
          "name": "open",
          "type": "bool"
        },
        {
          "internalType": "uint256",
          "name": "courseIdGenerator",
          "type": "uint256"
        },
        {
          "internalType": "address payable",
          "name": "UniversityOwner",
          "type": "address"
        }
      ],
      "payable": false,
      "stateMutability": "view",
      "type": "function"
    },
    {
      "constant": true,
      "inputs": [],
      "name": "owner",
      "outputs": [
        {
          "internalType": "address",
          "name": "",
          "type": "address"
        }
      ],
      "payable": false,
      "stateMutability": "view",
      "type": "function"
    },
    {
      "constant": true,
      "inputs": [
        {
          "internalType": "address",
          "name": "",
          "type": "address"
        }
      ],
      "name": "platformUsers",
      "outputs": [
        {
          "internalType": "uint256",
          "name": "id",
          "type": "uint256"
        },
        {
          "internalType": "string",
          "name": "fullName",
          "type": "string"
        },
        {
          "internalType": "string",
          "name": "email",
          "type": "string"
        },
        {
          "internalType": "address",
          "name": "userAddress",
          "type": "address"
        },
        {
          "internalType": "bool",
          "name": "isUniversityOwner",
          "type": "bool"
        }
      ],
      "payable": false,
      "stateMutability": "view",
      "type": "function"
    },
    {
      "constant": true,
      "inputs": [
        {
          "internalType": "uint256",
          "name": "",
          "type": "uint256"
        }
      ],
      "name": "platformUsersList",
      "outputs": [
        {
          "internalType": "address",
          "name": "",
          "type": "address"
        }
      ],
      "payable": false,
      "stateMutability": "view",
      "type": "function"
    },
    {
      "constant": false,
      "inputs": [],
      "name": "renounceOwnership",
      "outputs": [],
      "payable": false,
      "stateMutability": "nonpayable",
      "type": "function"
    },
    {
      "constant": false,
      "inputs": [
        {
          "internalType": "address",
          "name": "newOwner",
          "type": "address"
        }
      ],
      "name": "transferOwnership",
      "outputs": [],
      "payable": false,
      "stateMutability": "nonpayable",
      "type": "function"
    },
    {
      "constant": true,
      "inputs": [
        {
          "internalType": "uint256",
          "name": "",
          "type": "uint256"
        }
      ],
      "name": "universities",
      "outputs": [
        {
          "internalType": "uint256",
          "name": "id",
          "type": "uint256"
        },
        {
          "internalType": "string",
          "name": "name",
          "type": "string"
        },
        {
          "internalType": "string",
          "name": "description",
          "type": "string"
        },
        {
          "internalType": "string",
          "name": "website",
          "type": "string"
        },
        {
          "internalType": "string",
          "name": "phoneNumber",
          "type": "string"
        },
        {
          "internalType": "bool",
          "name": "open",
          "type": "bool"
        },
        {
          "internalType": "uint256",
          "name": "courseIdGenerator",
          "type": "uint256"
        },
        {
          "internalType": "address payable",
          "name": "UniversityOwner",
          "type": "address"
        }
      ],
      "payable": false,
      "stateMutability": "view",
      "type": "function"
    },
    {
      "constant": true,
      "inputs": [],
      "name": "universityIdGenerator",
      "outputs": [
        {
          "internalType": "uint256",
          "name": "",
          "type": "uint256"
        }
      ],
      "payable": false,
      "stateMutability": "view",
      "type": "function"
    },
    {
      "constant": true,
      "inputs": [
        {
          "internalType": "address",
          "name": "_ownerAddress",
          "type": "address"
        }
      ],
      "name": "getOwnerUniversity",
      "outputs": [
        {
          "internalType": "uint256",
          "name": "id",
          "type": "uint256"
        },
        {
          "internalType": "string",
          "name": "name",
          "type": "string"
        },
        {
          "internalType": "uint256",
          "name": "courseIdGenerator",
          "type": "uint256"
        }
      ],
      "payable": false,
      "stateMutability": "view",
      "type": "function"
    },
    {
      "constant": true,
      "inputs": [
        {
          "internalType": "address",
          "name": "_ownerAddress",
          "type": "address"
        },
        {
          "internalType": "uint256",
          "name": "_courseId",
          "type": "uint256"
        }
      ],
      "name": "getOwnerCourseByAddress",
      "outputs": [
        {
          "internalType": "string",
          "name": "courseName",
          "type": "string"
        },
        {
          "internalType": "uint256",
          "name": "cost",
          "type": "uint256"
        },
        {
          "internalType": "bool",
          "name": "active",
          "type": "bool"
        },
        {
          "internalType": "uint256",
          "name": "activeStudents",
          "type": "uint256"
        },
        {
          "internalType": "uint256",
          "name": "seatsAvailable",
          "type": "uint256"
        },
        {
          "internalType": "uint256",
          "name": "totalSeats",
          "type": "uint256"
        }
      ],
      "payable": false,
      "stateMutability": "view",
      "type": "function"
    },
    {
      "constant": true,
      "inputs": [],
      "name": "getNumberPlatformUser",
      "outputs": [
        {
          "internalType": "uint256",
          "name": "number",
          "type": "uint256"
        }
      ],
      "payable": false,
      "stateMutability": "view",
      "type": "function"
    },
    {
      "constant": true,
      "inputs": [
        {
          "internalType": "address",
          "name": "_address",
          "type": "address"
        }
      ],
      "name": "isUnivOwner",
      "outputs": [
        {
          "internalType": "bool",
          "name": "",
          "type": "bool"
        }
      ],
      "payable": false,
      "stateMutability": "view",
      "type": "function"
    },
    {
      "constant": false,
      "inputs": [
        {
          "internalType": "string",
          "name": "_name",
          "type": "string"
        },
        {
          "internalType": "string",
          "name": "_description",
          "type": "string"
        },
        {
          "internalType": "string",
          "name": "_website",
          "type": "string"
        },
        {
          "internalType": "string",
          "name": "_phoneNumber",
          "type": "string"
        }
      ],
      "name": "addUniversity",
      "outputs": [],
      "payable": false,
      "stateMutability": "nonpayable",
      "type": "function"
    },
    {
      "constant": false,
      "inputs": [
        {
          "internalType": "uint256",
          "name": "_universityId",
          "type": "uint256"
        },
        {
          "internalType": "string",
          "name": "_courseName",
          "type": "string"
        },
        {
          "internalType": "uint256",
          "name": "_cost",
          "type": "uint256"
        },
        {
          "internalType": "uint256",
          "name": "_seatsAvailable",
          "type": "uint256"
        }
      ],
      "name": "addCourse",
      "outputs": [
        {
          "internalType": "bool",
          "name": "",
          "type": "bool"
        }
      ],
      "payable": false,
      "stateMutability": "nonpayable",
      "type": "function"
    },
    {
      "constant": false,
      "inputs": [
        {
          "internalType": "uint256",
          "name": "_universityId",
          "type": "uint256"
        },
        {
          "internalType": "uint256",
          "name": "_courseId",
          "type": "uint256"
        },
        {
          "internalType": "string",
          "name": "_courseName",
          "type": "string"
        },
        {
          "internalType": "uint256",
          "name": "_cost",
          "type": "uint256"
        },
        {
          "internalType": "uint256",
          "name": "_seatsAvailable",
          "type": "uint256"
        },
        {
          "internalType": "bool",
          "name": "_isActive",
          "type": "bool"
        }
      ],
      "name": "updateCourse",
      "outputs": [
        {
          "internalType": "bool",
          "name": "",
          "type": "bool"
        }
      ],
      "payable": false,
      "stateMutability": "nonpayable",
      "type": "function"
    },
    {
      "constant": true,
      "inputs": [
        {
          "internalType": "uint256",
          "name": "_uniId",
          "type": "uint256"
        }
      ],
      "name": "getUniversity",
      "outputs": [
        {
          "internalType": "uint256",
          "name": "id",
          "type": "uint256"
        },
        {
          "internalType": "string",
          "name": "name",
          "type": "string"
        },
        {
          "internalType": "string",
          "name": "description",
          "type": "string"
        },
        {
          "internalType": "string",
          "name": "website",
          "type": "string"
        },
        {
          "internalType": "string",
          "name": "phone",
          "type": "string"
        }
      ],
      "payable": false,
      "stateMutability": "view",
      "type": "function"
    },
    {
      "constant": true,
      "inputs": [
        {
          "internalType": "uint256",
          "name": "_universityId",
          "type": "uint256"
        }
      ],
      "name": "getCourseId",
      "outputs": [
        {
          "internalType": "uint256",
          "name": "",
          "type": "uint256"
        }
      ],
      "payable": false,
      "stateMutability": "view",
      "type": "function"
    },
    {
      "constant": true,
      "inputs": [
        {
          "internalType": "uint256",
          "name": "_universityId",
          "type": "uint256"
        }
      ],
      "name": "getUniversityOwner",
      "outputs": [
        {
          "internalType": "address",
          "name": "universityOwner",
          "type": "address"
        }
      ],
      "payable": false,
      "stateMutability": "view",
      "type": "function"
    },
    {
      "constant": true,
      "inputs": [
        {
          "internalType": "uint256",
          "name": "_universityId",
          "type": "uint256"
        },
        {
          "internalType": "uint256",
          "name": "_courseId",
          "type": "uint256"
        }
      ],
      "name": "getUniversityCourse",
      "outputs": [
        {
          "internalType": "uint256",
          "name": "universityId",
          "type": "uint256"
        },
        {
          "internalType": "uint256",
          "name": "courseId",
          "type": "uint256"
        },
        {
          "internalType": "string",
          "name": "courseName",
          "type": "string"
        },
        {
          "internalType": "uint256",
          "name": "cost",
          "type": "uint256"
        },
        {
          "internalType": "bool",
          "name": "active",
          "type": "bool"
        },
        {
          "internalType": "uint256",
          "name": "activeStudents",
          "type": "uint256"
        },
        {
          "internalType": "uint256",
          "name": "seatsAvailable",
          "type": "uint256"
        },
        {
          "internalType": "uint256",
          "name": "totalSeats",
          "type": "uint256"
        },
        {
          "internalType": "uint256",
          "name": "balance",
          "type": "uint256"
        }
      ],
      "payable": false,
      "stateMutability": "view",
      "type": "function"
    },
    {
      "constant": false,
      "inputs": [
        {
          "internalType": "uint256",
          "name": "_universityId",
          "type": "uint256"
        },
        {
          "internalType": "uint256",
          "name": "_courseId",
          "type": "uint256"
        },
        {
          "internalType": "bool",
          "name": "_state",
          "type": "bool"
        }
      ],
      "name": "toggleActiveCourse",
      "outputs": [],
      "payable": false,
      "stateMutability": "nonpayable",
      "type": "function"
    },
    {
      "constant": true,
      "inputs": [
        {
          "internalType": "address",
          "name": "_address",
          "type": "address"
        }
      ],
      "name": "getPlatformMember",
      "outputs": [
        {
          "internalType": "uint256",
          "name": "id",
          "type": "uint256"
        },
        {
          "internalType": "string",
          "name": "fullname",
          "type": "string"
        },
        {
          "internalType": "string",
          "name": "email",
          "type": "string"
        },
        {
          "internalType": "address",
          "name": "userAddress",
          "type": "address"
        },
        {
          "internalType": "bool",
          "name": "isUnivOwner",
          "type": "bool"
        }
      ],
      "payable": false,
      "stateMutability": "view",
      "type": "function"
    },
    {
      "constant": false,
      "inputs": [
        {
          "internalType": "address payable",
          "name": "_ownerAddr",
          "type": "address"
        },
        {
          "internalType": "uint256",
          "name": "_universityId",
          "type": "uint256"
        },
        {
          "internalType": "string",
          "name": "_name",
          "type": "string"
        },
        {
          "internalType": "string",
          "name": "_email",
          "type": "string"
        }
      ],
      "name": "addUniversityOwner",
      "outputs": [
        {
          "internalType": "bool",
          "name": "",
          "type": "bool"
        }
      ],
      "payable": false,
      "stateMutability": "nonpayable",
      "type": "function"
    },
    {
      "constant": false,
      "inputs": [
        {
          "internalType": "address",
          "name": "_addr",
          "type": "address"
        },
        {
          "internalType": "string",
          "name": "_name",
          "type": "string"
        },
        {
          "internalType": "string",
          "name": "_email",
          "type": "string"
        }
      ],
      "name": "addStudent",
      "outputs": [
        {
          "internalType": "bool",
          "name": "",
          "type": "bool"
        }
      ],
      "payable": false,
      "stateMutability": "nonpayable",
      "type": "function"
    },
    {
      "constant": true,
      "inputs": [
        {
          "internalType": "uint256",
          "name": "_univId",
          "type": "uint256"
        },
        {
          "internalType": "uint256",
          "name": "_courseId",
          "type": "uint256"
        }
      ],
      "name": "getCourseBalance",
      "outputs": [
        {
          "internalType": "uint256",
          "name": "",
          "type": "uint256"
        }
      ],
      "payable": false,
      "stateMutability": "view",
      "type": "function"
    },
    {
      "constant": false,
      "inputs": [
        {
          "internalType": "uint256",
          "name": "_uniId",
          "type": "uint256"
        },
        {
          "internalType": "uint256",
          "name": "_courseId",
          "type": "uint256"
        },
        {
          "internalType": "uint256",
          "name": "_quantity",
          "type": "uint256"
        }
      ],
      "name": "buyCourse",
      "outputs": [],
      "payable": true,
      "stateMutability": "payable",
      "type": "function"
    },
    {
      "constant": false,
      "inputs": [
        {
          "internalType": "uint256",
          "name": "_uniId",
          "type": "uint256"
        },
        {
          "internalType": "uint256",
          "name": "_courseId",
          "type": "uint256"
        }
      ],
      "name": "withdrawCourseFunds",
      "outputs": [],
      "payable": true,
      "stateMutability": "payable",
      "type": "function"
    }
  ],
  "bytecode": "0x608060405262000014620000d560201b60201c565b6000806101000a81548173ffffffffffffffffffffffffffffffffffffffff021916908373ffffffffffffffffffffffffffffffffffffffff1602179055506000809054906101000a900473ffffffffffffffffffffffffffffffffffffffff1673ffffffffffffffffffffffffffffffffffffffff16600073ffffffffffffffffffffffffffffffffffffffff167f8be0079c531659141344cd1fd0a4f28419497f9722a3daafe3b4186f6b6457e060405160405180910390a3620000dd565b600033905090565b614c4480620000ed6000396000f3fe6080604052600436106101b75760003560e01c80638da5cb5b116100ec578063ca4c83cd1161008a578063eee60cff11610064578063eee60cff14611782578063f1780194146117eb578063f1bef255146118e9578063f2fde38b146119e3576101b7565b8063ca4c83cd14611332578063cfb49d351461158c578063e470ca4914611707576101b7565b806398f5897a116100c657806398f5897a14610c095780639c38f65f14610c62578063b28064d814610ea6578063c99086d014611133576101b7565b80638da5cb5b146109e25780638f32d59b14610a39578063903ba9f414610a68576101b7565b806352db07ee11610159578063715018a611610133578063715018a61461084a5780637b195fef146108615780637c990577146109755780637cd52821146109a0576101b7565b806352db07ee146106855780635bc22199146106d4578063696321f1146107cf576101b7565b806321a829c61161019557806321a829c6146103b357806326ff98721461054a5780632e2fed66146105755780633a484d67146105ad576101b7565b8063019c8e79146101bc5780631562d66b146101e757806320fef21414610362575b600080fd5b3480156101c857600080fd5b506101d1611a34565b6040518082815260200191505060405180910390f35b3480156101f357600080fd5b506102366004803603602081101561020a57600080fd5b81019080803573ffffffffffffffffffffffffffffffffffffffff169060200190929190505050611a3a565b6040518086815260200180602001806020018573ffffffffffffffffffffffffffffffffffffffff1673ffffffffffffffffffffffffffffffffffffffff16815260200184151515158152602001838103835287818151815260200191508051906020019080838360005b838110156102bc5780820151818401526020810190506102a1565b50505050905090810190601f1680156102e95780820380516001836020036101000a031916815260200191505b50838103825286818151815260200191508051906020019080838360005b83811015610322578082015181840152602081019050610307565b50505050905090810190601f16801561034f5780820380516001836020036101000a031916815260200191505b5097505050505050505060405180910390f35b34801561036e57600080fd5b506103b16004803603606081101561038557600080fd5b810190808035906020019092919080359060200190929190803515159060200190929190505050611d10565b005b3480156103bf57600080fd5b50610530600480360360608110156103d657600080fd5b81019080803573ffffffffffffffffffffffffffffffffffffffff1690602001909291908035906020019064010000000081111561041357600080fd5b82018360208201111561042557600080fd5b8035906020019184600183028401116401000000008311171561044757600080fd5b91908080601f016020809104026020016040519081016040528093929190818152602001838380828437600081840152601f19601f820116905080830192505050505050509192919290803590602001906401000000008111156104aa57600080fd5b8201836020820111156104bc57600080fd5b803590602001918460018302840111640100000000831117156104de57600080fd5b91908080601f016020809104026020016040519081016040528093929190818152602001838380828437600081840152601f19601f820116905080830192505050505050509192919290505050611d57565b604051808215151515815260200191505060405180910390f35b34801561055657600080fd5b5061055f611f37565b6040518082815260200191505060405180910390f35b6105ab6004803603604081101561058b57600080fd5b810190808035906020019092919080359060200190929190505050611f3d565b005b3480156105b957600080fd5b506105fc600480360360208110156105d057600080fd5b81019080803573ffffffffffffffffffffffffffffffffffffffff1690602001909291905050506120d3565b6040518084815260200180602001838152602001828103825284818151815260200191508051906020019080838360005b8381101561064857808201518184015260208101905061062d565b50505050905090810190601f1680156106755780820380516001836020036101000a031916815260200191505b5094505050505060405180910390f35b34801561069157600080fd5b506106be600480360360208110156106a857600080fd5b8101908080359060200190929190505050612250565b6040518082815260200191505060405180910390f35b3480156106e057600080fd5b5061072d600480360360408110156106f757600080fd5b81019080803573ffffffffffffffffffffffffffffffffffffffff16906020019092919080359060200190929190505050612275565b604051808060200187815260200186151515158152602001858152602001848152602001838152602001828103825288818151815260200191508051906020019080838360005b8381101561078f578082015181840152602081019050610774565b50505050905090810190601f1680156107bc5780820380516001836020036101000a031916815260200191505b5097505050505050505060405180910390f35b3480156107db57600080fd5b50610808600480360360208110156107f257600080fd5b8101908080359060200190929190505050612556565b604051808273ffffffffffffffffffffffffffffffffffffffff1673ffffffffffffffffffffffffffffffffffffffff16815260200191505060405180910390f35b34801561085657600080fd5b5061085f612599565b005b34801561086d57600080fd5b5061095b600480360360c081101561088457600080fd5b810190808035906020019092919080359060200190929190803590602001906401000000008111156108b557600080fd5b8201836020820111156108c757600080fd5b803590602001918460018302840111640100000000831117156108e957600080fd5b91908080601f016020809104026020016040519081016040528093929190818152602001838380828437600081840152601f19601f82011690508083019250505050505050919291929080359060200190929190803590602001909291908035151590602001909291905050506126d2565b604051808215151515815260200191505060405180910390f35b34801561098157600080fd5b5061098a612933565b6040518082815260200191505060405180910390f35b6109e0600480360360608110156109b657600080fd5b81019080803590602001909291908035906020019092919080359060200190929190505050612943565b005b3480156109ee57600080fd5b506109f7612b87565b604051808273ffffffffffffffffffffffffffffffffffffffff1673ffffffffffffffffffffffffffffffffffffffff16815260200191505060405180910390f35b348015610a4557600080fd5b50610a4e612bb0565b604051808215151515815260200191505060405180910390f35b348015610a7457600080fd5b50610bef60048036036080811015610a8b57600080fd5b81019080803573ffffffffffffffffffffffffffffffffffffffff1690602001909291908035906020019092919080359060200190640100000000811115610ad257600080fd5b820183602082011115610ae457600080fd5b80359060200191846001830284011164010000000083111715610b0657600080fd5b91908080601f016020809104026020016040519081016040528093929190818152602001838380828437600081840152601f19601f82011690508083019250505050505050919291929080359060200190640100000000811115610b6957600080fd5b820183602082011115610b7b57600080fd5b80359060200191846001830284011164010000000083111715610b9d57600080fd5b91908080601f016020809104026020016040519081016040528093929190818152602001838380828437600081840152601f19601f820116905080830192505050505050509192919290505050612c0e565b604051808215151515815260200191505060405180910390f35b348015610c1557600080fd5b50610c4c60048036036040811015610c2c57600080fd5b810190808035906020019092919080359060200190929190505050613128565b6040518082815260200191505060405180910390f35b348015610c6e57600080fd5b50610c9b60048036036020811015610c8557600080fd5b810190808035906020019092919050505061315d565b6040518089815260200180602001806020018060200180602001881515151581526020018781526020018673ffffffffffffffffffffffffffffffffffffffff1673ffffffffffffffffffffffffffffffffffffffff16815260200185810385528c818151815260200191508051906020019080838360005b83811015610d2f578082015181840152602081019050610d14565b50505050905090810190601f168015610d5c5780820380516001836020036101000a031916815260200191505b5085810384528b818151815260200191508051906020019080838360005b83811015610d95578082015181840152602081019050610d7a565b50505050905090810190601f168015610dc25780820380516001836020036101000a031916815260200191505b5085810383528a818151815260200191508051906020019080838360005b83811015610dfb578082015181840152602081019050610de0565b50505050905090810190601f168015610e285780820380516001836020036101000a031916815260200191505b50858103825289818151815260200191508051906020019080838360005b83811015610e61578082015181840152602081019050610e46565b50505050905090810190601f168015610e8e5780820380516001836020036101000a031916815260200191505b509c5050505050505050505050505060405180910390f35b348015610eb257600080fd5b5061113160048036036080811015610ec957600080fd5b8101908080359060200190640100000000811115610ee657600080fd5b820183602082011115610ef857600080fd5b80359060200191846001830284011164010000000083111715610f1a57600080fd5b91908080601f016020809104026020016040519081016040528093929190818152602001838380828437600081840152601f19601f82011690508083019250505050505050919291929080359060200190640100000000811115610f7d57600080fd5b820183602082011115610f8f57600080fd5b80359060200191846001830284011164010000000083111715610fb157600080fd5b91908080601f016020809104026020016040519081016040528093929190818152602001838380828437600081840152601f19601f8201169050808301925050505050505091929192908035906020019064010000000081111561101457600080fd5b82018360208201111561102657600080fd5b8035906020019184600183028401116401000000008311171561104857600080fd5b91908080601f016020809104026020016040519081016040528093929190818152602001838380828437600081840152601f19601f820116905080830192505050505050509192919290803590602001906401000000008111156110ab57600080fd5b8201836020820111156110bd57600080fd5b803590602001918460018302840111640100000000831117156110df57600080fd5b91908080601f016020809104026020016040519081016040528093929190818152602001838380828437600081840152601f19601f820116905080830192505050505050509192919290505050613432565b005b34801561113f57600080fd5b5061116c6004803603602081101561115657600080fd5b8101908080359060200190929190505050613728565b6040518086815260200180602001806020018060200180602001858103855289818151815260200191508051906020019080838360005b838110156111be5780820151818401526020810190506111a3565b50505050905090810190601f1680156111eb5780820380516001836020036101000a031916815260200191505b50858103845288818151815260200191508051906020019080838360005b83811015611224578082015181840152602081019050611209565b50505050905090810190601f1680156112515780820380516001836020036101000a031916815260200191505b50858103835287818151815260200191508051906020019080838360005b8381101561128a57808201518184015260208101905061126f565b50505050905090810190601f1680156112b75780820380516001836020036101000a031916815260200191505b50858103825286818151815260200191508051906020019080838360005b838110156112f05780820151818401526020810190506112d5565b50505050905090810190601f16801561131d5780820380516001836020036101000a031916815260200191505b50995050505050505050505060405180910390f35b34801561133e57600080fd5b506113816004803603602081101561135557600080fd5b81019080803573ffffffffffffffffffffffffffffffffffffffff169060200190929190505050613a0c565b6040518089815260200180602001806020018060200180602001881515151581526020018781526020018673ffffffffffffffffffffffffffffffffffffffff1673ffffffffffffffffffffffffffffffffffffffff16815260200185810385528c818151815260200191508051906020019080838360005b838110156114155780820151818401526020810190506113fa565b50505050905090810190601f1680156114425780820380516001836020036101000a031916815260200191505b5085810384528b818151815260200191508051906020019080838360005b8381101561147b578082015181840152602081019050611460565b50505050905090810190601f1680156114a85780820380516001836020036101000a031916815260200191505b5085810383528a818151815260200191508051906020019080838360005b838110156114e15780820151818401526020810190506114c6565b50505050905090810190601f16801561150e5780820380516001836020036101000a031916815260200191505b50858103825289818151815260200191508051906020019080838360005b8381101561154757808201518184015260208101905061152c565b50505050905090810190601f1680156115745780820380516001836020036101000a031916815260200191505b509c5050505050505050505050505060405180910390f35b34801561159857600080fd5b506115db600480360360208110156115af57600080fd5b81019080803573ffffffffffffffffffffffffffffffffffffffff169060200190929190505050613ce1565b6040518086815260200180602001806020018573ffffffffffffffffffffffffffffffffffffffff1673ffffffffffffffffffffffffffffffffffffffff16815260200184151515158152602001838103835287818151815260200191508051906020019080838360005b83811015611661578082015181840152602081019050611646565b50505050905090810190601f16801561168e5780820380516001836020036101000a031916815260200191505b50838103825286818151815260200191508051906020019080838360005b838110156116c75780820151818401526020810190506116ac565b50505050905090810190601f1680156116f45780820380516001836020036101000a031916815260200191505b5097505050505050505060405180910390f35b34801561171357600080fd5b506117406004803603602081101561172a57600080fd5b8101908080359060200190929190505050613e74565b604051808273ffffffffffffffffffffffffffffffffffffffff1673ffffffffffffffffffffffffffffffffffffffff16815260200191505060405180910390f35b34801561178e57600080fd5b506117d1600480360360208110156117a557600080fd5b81019080803573ffffffffffffffffffffffffffffffffffffffff169060200190929190505050613eb0565b604051808215151515815260200191505060405180910390f35b3480156117f757600080fd5b506118cf6004803603608081101561180e57600080fd5b81019080803590602001909291908035906020019064010000000081111561183557600080fd5b82018360208201111561184757600080fd5b8035906020019184600183028401116401000000008311171561186957600080fd5b91908080601f016020809104026020016040519081016040528093929190818152602001838380828437600081840152601f19601f8201169050808301925050505050505091929192908035906020019092919080359060200190929190505050613f09565b604051808215151515815260200191505060405180910390f35b3480156118f557600080fd5b5061192c6004803603604081101561190c57600080fd5b8101908080359060200190929190803590602001909291905050506142e2565b604051808a81526020018981526020018060200188815260200187151515158152602001868152602001858152602001848152602001838152602001828103825289818151815260200191508051906020019080838360005b838110156119a0578082015181840152602081019050611985565b50505050905090810190601f1680156119cd5780820380516001836020036101000a031916815260200191505b509a505050505050505050505060405180910390f35b3480156119ef57600080fd5b50611a3260048036036020811015611a0657600080fd5b81019080803573ffffffffffffffffffffffffffffffffffffffff169060200190929190505050614525565b005b60055481565b6000606080600080600860008773ffffffffffffffffffffffffffffffffffffffff1673ffffffffffffffffffffffffffffffffffffffff1681526020019081526020016000206001018054600181600116156101000203166002900480601f016020809104026020016040519081016040528092919081815260200182805460018160011615610100020316600290048015611b185780601f10611aed57610100808354040283529160200191611b18565b820191906000526020600020905b815481529060010190602001808311611afb57829003601f168201915b50505050509350600860008773ffffffffffffffffffffffffffffffffffffffff1673ffffffffffffffffffffffffffffffffffffffff1681526020019081526020016000206002018054600181600116156101000203166002900480601f016020809104026020016040519081016040528092919081815260200182805460018160011615610100020316600290048015611bf55780601f10611bca57610100808354040283529160200191611bf5565b820191906000526020600020905b815481529060010190602001808311611bd857829003601f168201915b50505050509250600860008773ffffffffffffffffffffffffffffffffffffffff1673ffffffffffffffffffffffffffffffffffffffff168152602001908152602001600020600001549450600860008773ffffffffffffffffffffffffffffffffffffffff1673ffffffffffffffffffffffffffffffffffffffff16815260200190815260200160002060030160009054906101000a900473ffffffffffffffffffffffffffffffffffffffff169150600860008773ffffffffffffffffffffffffffffffffffffffff1673ffffffffffffffffffffffffffffffffffffffff16815260200190815260200160002060030160149054906101000a900460ff16905084848484849450945094509450945091939590929450565b8060066000858152602001908152602001600020600801600084815260200190815260200160002060040160006101000a81548160ff021916908315150217905550505050565b600083600073ffffffffffffffffffffffffffffffffffffffff168173ffffffffffffffffffffffffffffffffffffffff161415611de0576040517f08c379a0000000000000000000000000000000000000000000000000000000008152600401808060200182810382526022815260200180614ae56022913960400191505060405180910390fd5b611de86148b0565b848160200181905250838160400181905250600554816000018181525050611e1a8660036145ab90919063ffffffff16565b600081608001901515908115158152505080600860008873ffffffffffffffffffffffffffffffffffffffff1673ffffffffffffffffffffffffffffffffffffffff168152602001908152602001600020600082015181600001556020820151816001019080519060200190611e919291906148f7565b506040820151816002019080519060200190611eae9291906148f7565b5060608201518160030160006101000a81548173ffffffffffffffffffffffffffffffffffffffff021916908373ffffffffffffffffffffffffffffffffffffffff16021790555060808201518160030160146101000a81548160ff02191690831515021790555090505060016005600082825401925050819055506001925050509392505050565b60045481565b60066000838152602001908152602001600020600801600082815260200190815260200160002060080160009054906101000a900473ffffffffffffffffffffffffffffffffffffffff1673ffffffffffffffffffffffffffffffffffffffff163373ffffffffffffffffffffffffffffffffffffffff1614612028576040517f08c379a000000000000000000000000000000000000000000000000000000000815260040180806020018281038252601b8152602001807f4e65656420746f2062652074686520636f75727365206f776e6572000000000081525060200191505060405180910390fd5b60006006600084815260200190815260200160002060080160008381526020019081526020016000206003015490506000600660008581526020019081526020016000206008016000848152602001908152602001600020600301819055503373ffffffffffffffffffffffffffffffffffffffff166108fc829081150290604051600060405180830381858888f193505050501580156120cd573d6000803e3d6000fd5b50505050565b600060606000600760008573ffffffffffffffffffffffffffffffffffffffff1673ffffffffffffffffffffffffffffffffffffffff168152602001908152602001600020600001549250600760008573ffffffffffffffffffffffffffffffffffffffff1673ffffffffffffffffffffffffffffffffffffffff1681526020019081526020016000206001018054600181600116156101000203166002900480601f0160208091040260200160405190810160405280929190818152602001828054600181600116156101000203166002900480156121f45780601f106121c9576101008083540402835291602001916121f4565b820191906000526020600020905b8154815290600101906020018083116121d757829003601f168201915b50505050509150600760008573ffffffffffffffffffffffffffffffffffffffff1673ffffffffffffffffffffffffffffffffffffffff1681526020019081526020016000206006015490508282829250925092509193909250565b6000806006600084815260200190815260200160002060060154905080915050919050565b60606000806000806000600760008973ffffffffffffffffffffffffffffffffffffffff1673ffffffffffffffffffffffffffffffffffffffff16815260200190815260200160002060080160008881526020019081526020016000206001018054600181600116156101000203166002900480601f0160208091040260200160405190810160405280929190818152602001828054600181600116156101000203166002900480156123695780601f1061233e57610100808354040283529160200191612369565b820191906000526020600020905b81548152906001019060200180831161234c57829003601f168201915b50505050509550600760008973ffffffffffffffffffffffffffffffffffffffff1673ffffffffffffffffffffffffffffffffffffffff1681526020019081526020016000206008016000888152602001908152602001600020600201549450600760008973ffffffffffffffffffffffffffffffffffffffff1673ffffffffffffffffffffffffffffffffffffffff168152602001908152602001600020600801600088815260200190815260200160002060040160009054906101000a900460ff169350600760008973ffffffffffffffffffffffffffffffffffffffff1673ffffffffffffffffffffffffffffffffffffffff1681526020019081526020016000206008016000888152602001908152602001600020600501549250600760008973ffffffffffffffffffffffffffffffffffffffff1673ffffffffffffffffffffffffffffffffffffffff1681526020019081526020016000206008016000888152602001908152602001600020600601549150600760008973ffffffffffffffffffffffffffffffffffffffff1673ffffffffffffffffffffffffffffffffffffffff16815260200190815260200160002060080160008881526020019081526020016000206007015490508585858585859550955095509550955095509295509295509295565b60006006600083815260200190815260200160002060070160009054906101000a900473ffffffffffffffffffffffffffffffffffffffff169050809050919050565b6125a1612bb0565b612613576040517f08c379a00000000000000000000000000000000000000000000000000000000081526004018080602001828103825260208152602001807f4f776e61626c653a2063616c6c6572206973206e6f7420746865206f776e657281525060200191505060405180910390fd5b600073ffffffffffffffffffffffffffffffffffffffff166000809054906101000a900473ffffffffffffffffffffffffffffffffffffffff1673ffffffffffffffffffffffffffffffffffffffff167f8be0079c531659141344cd1fd0a4f28419497f9722a3daafe3b4186f6b6457e060405160405180910390a360008060006101000a81548173ffffffffffffffffffffffffffffffffffffffff021916908373ffffffffffffffffffffffffffffffffffffffff160217905550565b6000863373ffffffffffffffffffffffffffffffffffffffff166006600083815260200190815260200160002060070160009054906101000a900473ffffffffffffffffffffffffffffffffffffffff1673ffffffffffffffffffffffffffffffffffffffff161461278f576040517f08c379a0000000000000000000000000000000000000000000000000000000008152600401808060200182810382526037815260200180614bd96037913960400191505060405180910390fd5b6127a333600161468690919063ffffffff16565b6127f8576040517f08c379a0000000000000000000000000000000000000000000000000000000008152600401808060200182810382526023815260200180614b2d6023913960400191505060405180910390fd5b612800614977565b868160200181905250848160c0018181525050848160e0018181525050858160400181815250508381608001901515908115158152505080600660008b815260200190815260200160002060080160008a81526020019081526020016000206000820151816000015560208201518160010190805190602001906128859291906148f7565b50604082015181600201556060820151816003015560808201518160040160006101000a81548160ff02191690831515021790555060a0820151816005015560c0820151816006015560e082015181600701556101008201518160080160006101000a81548173ffffffffffffffffffffffffffffffffffffffff021916908373ffffffffffffffffffffffffffffffffffffffff1602179055509050506001925050509695505050505050565b6000600980549050905080905090565b8282826000600660008581526020019081526020016000206008016000848152602001908152602001600020600201549050816006600086815260200190815260200160002060080160008581526020019081526020016000206006015410156129f8576040517f08c379a000000000000000000000000000000000000000000000000000000000815260040180806020018281038252603a815260200180614b7d603a913960400191505060405180910390fd5b818102341015612a70576040517f08c379a00000000000000000000000000000000000000000000000000000000081526004018080602001828103825260148152602001807f4e4f5420454e4f5547482046454553205041494400000000000000000000000081525060200191505060405180910390fd5b8686600060066000848152602001908152602001600020600801600083815260200190815260200160002060040160009054906101000a900460ff1690506001151581151514612b0b576040517f08c379a000000000000000000000000000000000000000000000000000000000815260040180806020018281038252602d815260200180614b50602d913960400191505060405180910390fd5b34600660008c815260200190815260200160002060080160008b81526020019081526020016000206003016000828254019250508190555087600660008c815260200190815260200160002060080160008b81526020019081526020016000206006016000828254039250508190555050505050505050505050565b60008060009054906101000a900473ffffffffffffffffffffffffffffffffffffffff16905090565b60008060009054906101000a900473ffffffffffffffffffffffffffffffffffffffff1673ffffffffffffffffffffffffffffffffffffffff16612bf2614764565b73ffffffffffffffffffffffffffffffffffffffff1614905090565b6000612c18612bb0565b612c8a576040517f08c379a00000000000000000000000000000000000000000000000000000000081526004018080602001828103825260208152602001807f4f776e61626c653a2063616c6c6572206973206e6f7420746865206f776e657281525060200191505060405180910390fd5b84600073ffffffffffffffffffffffffffffffffffffffff168173ffffffffffffffffffffffffffffffffffffffff161415612d11576040517f08c379a0000000000000000000000000000000000000000000000000000000008152600401808060200182810382526022815260200180614ae56022913960400191505060405180910390fd5b612d196148b0565b848160200181905250838160400181905250600554816000018181525050600181608001901515908115158152505086816060019073ffffffffffffffffffffffffffffffffffffffff16908173ffffffffffffffffffffffffffffffffffffffff1681525050612d948760016145ab90919063ffffffff16565b80600860008973ffffffffffffffffffffffffffffffffffffffff1673ffffffffffffffffffffffffffffffffffffffff168152602001908152602001600020600082015181600001556020820151816001019080519060200190612dfa9291906148f7565b506040820151816002019080519060200190612e179291906148f7565b5060608201518160030160006101000a81548173ffffffffffffffffffffffffffffffffffffffff021916908373ffffffffffffffffffffffffffffffffffffffff16021790555060808201518160030160146101000a81548160ff0219169083151502179055509050506001600560008282540192505081905550866006600088815260200190815260200160002060070160006101000a81548173ffffffffffffffffffffffffffffffffffffffff021916908373ffffffffffffffffffffffffffffffffffffffff16021790555060016006600088815260200190815260200160002060050160006101000a81548160ff02191690831515021790555060066000878152602001908152602001600020600760008973ffffffffffffffffffffffffffffffffffffffff1673ffffffffffffffffffffffffffffffffffffffff1681526020019081526020016000206000820154816000015560018201816001019080546001816001161561010002031660029004612f9a9291906149db565b5060028201816002019080546001816001161561010002031660029004612fc29291906149db565b5060038201816003019080546001816001161561010002031660029004612fea9291906149db565b50600482018160040190805460018160011615610100020316600290046130129291906149db565b506005820160009054906101000a900460ff168160050160006101000a81548160ff021916908315150217905550600682015481600601556007820160009054906101000a900473ffffffffffffffffffffffffffffffffffffffff168160070160006101000a81548173ffffffffffffffffffffffffffffffffffffffff021916908373ffffffffffffffffffffffffffffffffffffffff16021790555090505060098790806001815401808255809150509060018203906000526020600020016000909192909190916101000a81548173ffffffffffffffffffffffffffffffffffffffff021916908373ffffffffffffffffffffffffffffffffffffffff16021790555050600192505050949350505050565b600060066000848152602001908152602001600020600801600083815260200190815260200160002060030154905092915050565b6006602052806000526040600020600091509050806000015490806001018054600181600116156101000203166002900480601f01602080910402602001604051908101604052809291908181526020018280546001816001161561010002031660029004801561320f5780601f106131e45761010080835404028352916020019161320f565b820191906000526020600020905b8154815290600101906020018083116131f257829003601f168201915b505050505090806002018054600181600116156101000203166002900480601f0160208091040260200160405190810160405280929190818152602001828054600181600116156101000203166002900480156132ad5780601f10613282576101008083540402835291602001916132ad565b820191906000526020600020905b81548152906001019060200180831161329057829003601f168201915b505050505090806003018054600181600116156101000203166002900480601f01602080910402602001604051908101604052809291908181526020018280546001816001161561010002031660029004801561334b5780601f106133205761010080835404028352916020019161334b565b820191906000526020600020905b81548152906001019060200180831161332e57829003601f168201915b505050505090806004018054600181600116156101000203166002900480601f0160208091040260200160405190810160405280929190818152602001828054600181600116156101000203166002900480156133e95780601f106133be576101008083540402835291602001916133e9565b820191906000526020600020905b8154815290600101906020018083116133cc57829003601f168201915b5050505050908060050160009054906101000a900460ff16908060060154908060070160009054906101000a900473ffffffffffffffffffffffffffffffffffffffff16905088565b61343a612bb0565b6134ac576040517f08c379a00000000000000000000000000000000000000000000000000000000081526004018080602001828103825260208152602001807f4f776e61626c653a2063616c6c6572206973206e6f7420746865206f776e657281525060200191505060405180910390fd5b6134b4614a62565b84816020018190525083816040018190525082816060018190525081816080018190525060008160a0019015159081151581525050600454816000018181525050806006600060045481526020019081526020016000206000820151816000015560208201518160010190805190602001906135319291906148f7565b50604082015181600201908051906020019061354e9291906148f7565b50606082015181600301908051906020019061356b9291906148f7565b5060808201518160040190805190602001906135889291906148f7565b5060a08201518160050160006101000a81548160ff02191690831515021790555060c0820151816006015560e08201518160070160006101000a81548173ffffffffffffffffffffffffffffffffffffffff021916908373ffffffffffffffffffffffffffffffffffffffff16021790555090505060016004600082825401925050819055507f17bd20564888962589be0906f760255071a0c85d66584f4e1f6489591c14f83c8585600454604051808060200180602001848152602001838103835286818151815260200191508051906020019080838360005b8381101561367e578082015181840152602081019050613663565b50505050905090810190601f1680156136ab5780820380516001836020036101000a031916815260200191505b50838103825285818151815260200191508051906020019080838360005b838110156136e45780820151818401526020810190506136c9565b50505050905090810190601f1680156137115780820380516001836020036101000a031916815260200191505b509550505050505060405180910390a15050505050565b6000606080606080600660008781526020019081526020016000206001018054600181600116156101000203166002900480601f0160208091040260200160405190810160405280929190818152602001828054600181600116156101000203166002900480156137da5780601f106137af576101008083540402835291602001916137da565b820191906000526020600020905b8154815290600101906020018083116137bd57829003601f168201915b50505050509350600660008781526020019081526020016000206003018054600181600116156101000203166002900480601f01602080910402602001604051908101604052809291908181526020018280546001816001161561010002031660029004801561388b5780601f106138605761010080835404028352916020019161388b565b820191906000526020600020905b81548152906001019060200180831161386e57829003601f168201915b50505050509150600660008781526020019081526020016000206002018054600181600116156101000203166002900480601f01602080910402602001604051908101604052809291908181526020018280546001816001161561010002031660029004801561393c5780601f106139115761010080835404028352916020019161393c565b820191906000526020600020905b81548152906001019060200180831161391f57829003601f168201915b50505050509250600660008781526020019081526020016000206004018054600181600116156101000203166002900480601f0160208091040260200160405190810160405280929190818152602001828054600181600116156101000203166002900480156139ed5780601f106139c2576101008083540402835291602001916139ed565b820191906000526020600020905b8154815290600101906020018083116139d057829003601f168201915b5050505050905085848484849450945094509450945091939590929450565b6007602052806000526040600020600091509050806000015490806001018054600181600116156101000203166002900480601f016020809104026020016040519081016040528092919081815260200182805460018160011615610100020316600290048015613abe5780601f10613a9357610100808354040283529160200191613abe565b820191906000526020600020905b815481529060010190602001808311613aa157829003601f168201915b505050505090806002018054600181600116156101000203166002900480601f016020809104026020016040519081016040528092919081815260200182805460018160011615610100020316600290048015613b5c5780601f10613b3157610100808354040283529160200191613b5c565b820191906000526020600020905b815481529060010190602001808311613b3f57829003601f168201915b505050505090806003018054600181600116156101000203166002900480601f016020809104026020016040519081016040528092919081815260200182805460018160011615610100020316600290048015613bfa5780601f10613bcf57610100808354040283529160200191613bfa565b820191906000526020600020905b815481529060010190602001808311613bdd57829003601f168201915b505050505090806004018054600181600116156101000203166002900480601f016020809104026020016040519081016040528092919081815260200182805460018160011615610100020316600290048015613c985780601f10613c6d57610100808354040283529160200191613c98565b820191906000526020600020905b815481529060010190602001808311613c7b57829003601f168201915b5050505050908060050160009054906101000a900460ff16908060060154908060070160009054906101000a900473ffffffffffffffffffffffffffffffffffffffff16905088565b6008602052806000526040600020600091509050806000015490806001018054600181600116156101000203166002900480601f016020809104026020016040519081016040528092919081815260200182805460018160011615610100020316600290048015613d935780601f10613d6857610100808354040283529160200191613d93565b820191906000526020600020905b815481529060010190602001808311613d7657829003601f168201915b505050505090806002018054600181600116156101000203166002900480601f016020809104026020016040519081016040528092919081815260200182805460018160011615610100020316600290048015613e315780601f10613e0657610100808354040283529160200191613e31565b820191906000526020600020905b815481529060010190602001808311613e1457829003601f168201915b5050505050908060030160009054906101000a900473ffffffffffffffffffffffffffffffffffffffff16908060030160149054906101000a900460ff16905085565b60098181548110613e8157fe5b906000526020600020016000915054906101000a900473ffffffffffffffffffffffffffffffffffffffff1681565b6000600160000160008373ffffffffffffffffffffffffffffffffffffffff1673ffffffffffffffffffffffffffffffffffffffff16815260200190815260200160002060009054906101000a900460ff169050919050565b6000843373ffffffffffffffffffffffffffffffffffffffff166006600083815260200190815260200160002060070160009054906101000a900473ffffffffffffffffffffffffffffffffffffffff1673ffffffffffffffffffffffffffffffffffffffff1614613fc6576040517f08c379a0000000000000000000000000000000000000000000000000000000008152600401808060200182810382526037815260200180614bd96037913960400191505060405180910390fd5b613fda33600161468690919063ffffffff16565b61402f576040517f08c379a0000000000000000000000000000000000000000000000000000000008152600401808060200182810382526023815260200180614b2d6023913960400191505060405180910390fd5b614037614977565b858160200181905250838160c0018181525050838160e001818152505084816040018181525050600181608001901515908115158152505060008160a00181815250506006600088815260200190815260200160002060070160009054906101000a900473ffffffffffffffffffffffffffffffffffffffff1681610100019073ffffffffffffffffffffffffffffffffffffffff16908173ffffffffffffffffffffffffffffffffffffffff16815250506000600660008981526020019081526020016000206006015490508082600001818152505081600660008a8152602001908152602001600020600801600083815260200190815260200160002060008201518160000155602082015181600101908051906020019061415c9291906148f7565b50604082015181600201556060820151816003015560808201518160040160006101000a81548160ff02191690831515021790555060a0820151816005015560c0820151816006015560e082015181600701556101008201518160080160006101000a81548173ffffffffffffffffffffffffffffffffffffffff021916908373ffffffffffffffffffffffffffffffffffffffff1602179055509050506001600660008a8152602001908152602001600020600601600082825401925050819055507f89f4edc142d57c1d29965512cac1cbfe9541efa20ff153a28760f1b5829acf0d878787846040518080602001858152602001848152602001838152602001828103825286818151815260200191508051906020019080838360005b8381101561429657808201518184015260208101905061427b565b50505050905090810190601f1680156142c35780820380516001836020036101000a031916815260200191505b509550505050505060405180910390a160019350505050949350505050565b6000806060600080600080600080600660008c815260200190815260200160002060080160008b81526020019081526020016000206001018054600181600116156101000203166002900480601f0160208091040260200160405190810160405280929190818152602001828054600181600116156101000203166002900480156143ae5780601f10614383576101008083540402835291602001916143ae565b820191906000526020600020905b81548152906001019060200180831161439157829003601f168201915b50505050509650600660008c815260200190815260200160002060080160008b8152602001908152602001600020600001549750600660008c815260200190815260200160002060080160008b8152602001908152602001600020600201549550600660008c815260200190815260200160002060080160008b815260200190815260200160002060040160009054906101000a900460ff169450600660008c815260200190815260200160002060080160008b8152602001908152602001600020600501549350600660008c815260200190815260200160002060080160008b8152602001908152602001600020600601549250600660008c815260200190815260200160002060080160008b8152602001908152602001600020600701549150600660008c815260200190815260200160002060080160008b81526020019081526020016000206003015490508888888888888888889850985098509850985098509850985098509295985092959850929598565b61452d612bb0565b61459f576040517f08c379a00000000000000000000000000000000000000000000000000000000081526004018080602001828103825260208152602001807f4f776e61626c653a2063616c6c6572206973206e6f7420746865206f776e657281525060200191505060405180910390fd5b6145a88161476c565b50565b6145b58282614686565b15614628576040517f08c379a000000000000000000000000000000000000000000000000000000000815260040180806020018281038252601f8152602001807f526f6c65733a206163636f756e7420616c72656164792068617320726f6c650081525060200191505060405180910390fd5b60018260000160008373ffffffffffffffffffffffffffffffffffffffff1673ffffffffffffffffffffffffffffffffffffffff16815260200190815260200160002060006101000a81548160ff0219169083151502179055505050565b60008073ffffffffffffffffffffffffffffffffffffffff168273ffffffffffffffffffffffffffffffffffffffff16141561470d576040517f08c379a0000000000000000000000000000000000000000000000000000000008152600401808060200182810382526022815260200180614bb76022913960400191505060405180910390fd5b8260000160008373ffffffffffffffffffffffffffffffffffffffff1673ffffffffffffffffffffffffffffffffffffffff16815260200190815260200160002060009054906101000a900460ff16905092915050565b600033905090565b600073ffffffffffffffffffffffffffffffffffffffff168173ffffffffffffffffffffffffffffffffffffffff1614156147f2576040517f08c379a0000000000000000000000000000000000000000000000000000000008152600401808060200182810382526026815260200180614b076026913960400191505060405180910390fd5b8073ffffffffffffffffffffffffffffffffffffffff166000809054906101000a900473ffffffffffffffffffffffffffffffffffffffff1673ffffffffffffffffffffffffffffffffffffffff167f8be0079c531659141344cd1fd0a4f28419497f9722a3daafe3b4186f6b6457e060405160405180910390a3806000806101000a81548173ffffffffffffffffffffffffffffffffffffffff021916908373ffffffffffffffffffffffffffffffffffffffff16021790555050565b6040518060a00160405280600081526020016060815260200160608152602001600073ffffffffffffffffffffffffffffffffffffffff1681526020016000151581525090565b828054600181600116156101000203166002900490600052602060002090601f016020900481019282601f1061493857805160ff1916838001178555614966565b82800160010185558215614966579182015b8281111561496557825182559160200191906001019061494a565b5b5090506149739190614abf565b5090565b60405180610120016040528060008152602001606081526020016000815260200160008152602001600015158152602001600081526020016000815260200160008152602001600073ffffffffffffffffffffffffffffffffffffffff1681525090565b828054600181600116156101000203166002900490600052602060002090601f016020900481019282601f10614a145780548555614a51565b82800160010185558215614a5157600052602060002091601f016020900482015b82811115614a50578254825591600101919060010190614a35565b5b509050614a5e9190614abf565b5090565b604051806101000160405280600081526020016060815260200160608152602001606081526020016060815260200160001515815260200160008152602001600073ffffffffffffffffffffffffffffffffffffffff1681525090565b614ae191905b80821115614add576000816000905550600101614ac5565b5090565b9056fe414444524553532043414e4e4f5420424520544845205a45524f20414444524553534f776e61626c653a206e6577206f776e657220697320746865207a65726f2061646472657373444f4553204e4f54204841564520554e4956455253495459204f574e455220524f4c4554484520434f55525345204953204e4f54204143544956452c20594f552043414e4e4f542052454749535445524e4f5420454e4f55474820534541545320494e205448495320434f55525345202d20434f4e5441435420554e4956455253495459204f574e4552526f6c65733a206163636f756e7420697320746865207a65726f2061646472657373444f4553204e4f542042454c4f4e4720544f2054484520554e4956455253495459204f574e455253204f5220495320494e414354495645a265627a7a72315820c011f46db01ef5598688e9df25e0c18c313592afc47d49ffe6ba20801dfeba8e64736f6c634300050c0032",
  "source": "pragma solidity ^0.5.0;\r\n\r\nimport \"openzeppelin-solidity/contracts/access/Roles.sol\";\r\nimport \"openzeppelin-solidity/contracts/access/roles/PauserRole.sol\";\r\nimport \"openzeppelin-solidity/contracts/ownership/Ownable.sol\";\r\n\r\n//import \"github.com/OpenZeppelin/openzeppelin-solidity/contracts/access/Roles.sol\";\r\n//import \"github.com/OpenZeppelin/openzeppelin-solidity/contracts/access/roles/PauserRole.sol\";\r\n//import \"github.com/OpenZeppelin/openzeppelin-solidity/contracts/ownership/Ownable.sol\";\r\n\r\n/// @title Online Educational Platform\r\n/// @author Jafett Sandi\r\n/// @notice This contracts is not intended for Production use yet.\r\n/// @dev All function calls are currently implemented without side effects\r\ncontract EducationPlatform is Ownable {\r\n\r\n    using Roles for Roles.Role; // We want to use the Roles library\r\n    Roles.Role universityOwners; //Stores University owner Roles\r\n    Roles.Role teachers; // Stores teacher Roles\r\n    Roles.Role students; // Stores student Roles;\r\n\r\n    // ID Generators for universities and platform users\r\n    uint public universityIdGenerator;\r\n    uint public UserIdGenerator;\r\n\r\n    mapping (uint => University) public universities; // Mapping to keep track of the Universities\r\n    mapping (address => University) public mapUniversity;\r\n    mapping (address => PlatformMember) public platformUsers; // Mapping to keep track of the Students in the platform\r\n\r\n    address [] public platformUsersList;\r\n    \r\n    uint contractBalance;\r\n\r\n    struct University {\r\n        uint id;\r\n        string name;\r\n        string description;\r\n        string website;\r\n        string phoneNumber;\r\n        bool open;\r\n        uint courseIdGenerator;\r\n        address payable UniversityOwner;\r\n        mapping (uint => Course) courses; //Mappint to track all classes available for this University\r\n    }\r\n\r\n    // This structs is to store the information of a Platform member. Has a flag to identify if the member is Owner or not.\r\n    struct PlatformMember {\r\n        uint id;\r\n        string fullName;\r\n        string email;\r\n        address userAddress;\r\n        bool isUniversityOwner;\r\n    }\r\n\r\n    struct Course {\r\n        uint id;\r\n        string courseName;\r\n        uint cost;\r\n        uint courseBalance;\r\n        bool active;\r\n        uint activeStudents;\r\n        uint seatsAvailable; //to simulate a student buying multiple seats for a course\r\n        uint totalSeats;\r\n        address payable courseOwner;\r\n    }\r\n    \r\n    function getOwnerUniversity(address _ownerAddress) public view returns(uint id, string memory name, uint courseIdGenerator){\r\n        id = mapUniversity[_ownerAddress].id;\r\n        name = mapUniversity[_ownerAddress].name;\r\n        courseIdGenerator = mapUniversity[_ownerAddress].courseIdGenerator;\r\n        \r\n        return(id, name, courseIdGenerator);\r\n    }\r\n    \r\n    /// @author Jafett Sandi\r\n    /// @notice Gets a course based on an address and CourseId\r\n    /// @param _ownerAddress The address of the owner of the course\r\n    /// @param _courseId The id of the course\r\n    /// @return courseName, cost, active, activeStudents, seatsAvailable, totalSeats\r\n    function getOwnerCourseByAddress(address _ownerAddress, uint _courseId) public view returns(string memory courseName, uint cost, bool active, uint activeStudents, uint seatsAvailable, uint totalSeats) {\r\n        courseName = mapUniversity[_ownerAddress].courses[_courseId].courseName;\r\n        cost = mapUniversity[_ownerAddress].courses[_courseId].cost;\r\n        active = mapUniversity[_ownerAddress].courses[_courseId].active;\r\n        activeStudents = mapUniversity[_ownerAddress].courses[_courseId].activeStudents;\r\n        seatsAvailable = mapUniversity[_ownerAddress].courses[_courseId].seatsAvailable;\r\n        totalSeats = mapUniversity[_ownerAddress].courses[_courseId].totalSeats;\r\n        \r\n        return (courseName, cost, active, activeStudents, seatsAvailable, totalSeats);\r\n    }\r\n\r\n    function getNumberPlatformUser() public view returns(uint number){\r\n        number = platformUsersList.length;\r\n        return number;\r\n    }\r\n        \r\n    function isUnivOwner(address _address) public view returns(bool){\r\n        return universityOwners.bearer[_address];\r\n    }\r\n    \r\n    // Events\r\n    event LogUniversityAdded(string name, string desc, uint universityId);\r\n    event LogCourseAdded(string _courseName, uint cost, uint _seatsAvailable, uint courseId);\r\n\r\n    // Modifiers\r\n    modifier validAddress(address _address) {\r\n        require(_address != address(0), \"ADDRESS CANNOT BE THE ZERO ADDRESS\");\r\n        _;\r\n    }\r\n\r\n    modifier isUniversityOwner(address _addr) {\r\n        require(universityOwners.has(_addr), \"DOES NOT HAVE UNIVERSITY OWNER ROLE\");\r\n        _;\r\n    }\r\n\r\n    modifier isStudent(address _addr) {\r\n        require(students.has(_addr), \"DOES NOT HAVE STUDENT ROLE\");\r\n        _;\r\n    }\r\n\r\n    modifier enoughSeats(uint _universityId, uint _courseId, uint _quantity) {\r\n        require((universities[_universityId].courses[_courseId].seatsAvailable >= _quantity), \"NOT ENOUGH SEATS IN THIS COURSE - CONTACT UNIVERSITY OWNER\");\r\n        _;\r\n    }\r\n\r\n    modifier ownerAtUniversity(uint _universityId) {\r\n        require((universities[_universityId].UniversityOwner == msg.sender), \"DOES NOT BELONG TO THE UNIVERSITY OWNERS OR IS INACTIVE\");\r\n        require(universityOwners.has(msg.sender), \"DOES NOT HAVE UNIVERSITY OWNER ROLE\");\r\n        _;\r\n    }\r\n\r\n    modifier courseIsActive(uint _universityId, uint _courseId) {\r\n        require((universities[_universityId].courses[_courseId].active == true), \"COURSE IS INACTIVE - CONTACT UNIVERSITY OWNER\");\r\n        _;\r\n    }\r\n\r\n    modifier paidEnough(uint _universityId, uint _courseId, uint _quantity)\r\n    {\r\n        uint coursePrice = universities[_universityId].courses[_courseId].cost;\r\n        require((universities[_universityId].courses[_courseId].seatsAvailable >= _quantity), \"NOT ENOUGH SEATS IN THIS COURSE - CONTACT UNIVERSITY OWNER\");\r\n        require(msg.value >= (coursePrice * _quantity), \"NOT ENOUGH FEES PAID\");\r\n        _;\r\n    }\r\n\r\n    modifier checkValue(uint _universityId, uint _courseId, uint _quantity, address payable _addr)  {\r\n    //refund them after pay for item\r\n        _;\r\n        uint coursePrice = universities[_universityId].courses[_courseId].cost * _quantity;\r\n        uint total2RefundAfterPay = msg.value - coursePrice;\r\n        _addr.transfer(total2RefundAfterPay);\r\n    }\r\n    \r\n    modifier checkActive(uint _universityId, uint _courseId){\r\n        bool isActive = universities[_universityId].courses[_courseId].active;\r\n        \r\n        require(isActive == true, \"THE COURSE IS NOT ACTIVE, YOU CANNOT REGISTER\");\r\n        _;\r\n    }\r\n\r\n\r\n    /// @author Jafett Sandi\r\n    /// @notice Adds a University to the platform\r\n    /// @param _name The name of the University\r\n    /// @param _description The description of the University\r\n    /// @param _website The website URL of the University\r\n    /// @param _phoneNumber The PhoneNumber of the University\r\n    function addUniversity(string memory _name, string memory _description, string memory _website, string memory _phoneNumber)\r\n    public onlyOwner\r\n    {\r\n        University memory newUniversity;\r\n        newUniversity.name = _name;\r\n        newUniversity.description = _description;\r\n        newUniversity.website = _website;\r\n        newUniversity.phoneNumber = _phoneNumber;\r\n        newUniversity.open = false;\r\n        newUniversity.id = universityIdGenerator;\r\n        universities[universityIdGenerator] = newUniversity;\r\n        \r\n        universityIdGenerator += 1;\r\n\r\n        emit LogUniversityAdded(_name, _description, universityIdGenerator);\r\n    }\r\n\r\n    /// @author Jafett Sandi\r\n    /// @notice Adds a course to a University\r\n    /// @param _universityId The id of the University\r\n    /// @param _courseName The name of the course\r\n    /// @param _cost Thecost of the course\r\n    /// @param _seatsAvailable The seatsAvailablefor the course\r\n    /// @return true\r\n    function addCourse(uint _universityId, string memory _courseName, uint _cost, uint _seatsAvailable) public\r\n    ownerAtUniversity(_universityId)\r\n    returns (bool)\r\n    {\r\n        Course memory newCourse;\r\n        newCourse.courseName = _courseName;\r\n        newCourse.seatsAvailable = _seatsAvailable;\r\n        newCourse.totalSeats = _seatsAvailable;\r\n        newCourse.cost = _cost;\r\n        newCourse.active = true;\r\n        newCourse.activeStudents = 0;\r\n        newCourse.courseOwner = universities[_universityId].UniversityOwner;\r\n\r\n        uint courseId = universities[_universityId].courseIdGenerator;\r\n        newCourse.id = courseId;\r\n        universities[_universityId].courses[courseId] = newCourse;\r\n        universities[_universityId].courseIdGenerator += 1;\r\n\r\n        emit LogCourseAdded(_courseName, _cost, _seatsAvailable, courseId);\r\n        return true;\r\n    }\r\n\r\n\r\n    /// @author Jafett Sandi\r\n    /// @notice Updates a course's information\r\n    /// @param _universityId The id of the University\r\n    /// @param _courseId The id of the course to update\r\n    /// @param _courseName The name of the course\r\n    /// @param _cost Thecost of the course\r\n    /// @param _seatsAvailable The seatsAvailablefor the course\r\n    /// @param _isActive Is the course active?\r\n    /// @return true\r\n    function updateCourse(uint _universityId, uint _courseId, string memory _courseName, uint _cost, uint _seatsAvailable, bool _isActive)\r\n    public\r\n    ownerAtUniversity(_universityId)\r\n    returns (bool)\r\n    {\r\n        Course memory newCourse;\r\n        newCourse.courseName = _courseName;\r\n        newCourse.seatsAvailable = _seatsAvailable;\r\n        newCourse.totalSeats = _seatsAvailable;\r\n        newCourse.cost = _cost;\r\n        newCourse.active = _isActive;\r\n        universities[_universityId].courses[_courseId] = newCourse;\r\n        return true;\r\n    }\r\n\r\n    /// @author Jafett Sandi\r\n    /// @notice Get University details\r\n    /// @param _uniId The id of the University\r\n    /// @return _uniId, name, description, website, phone\r\n    function getUniversity(uint _uniId)\r\n    public view\r\n    returns (uint id, string memory name, string memory description, string memory website, string memory phone)\r\n    {\r\n        name = universities[_uniId].name;\r\n        website = universities[_uniId].website;\r\n        description = universities[_uniId].description;\r\n        phone = universities[_uniId].phoneNumber;\r\n        return (_uniId, name, description, website, phone);\r\n    }\r\n    \r\n    \r\n    /// @author Jafett Sandi\r\n    /// @notice Used to generate a courseId\r\n    /// @param _universityId The id of the University\r\n    /// @return courseId\r\n    function getCourseId (uint _universityId) public view returns(uint){\r\n            uint courseIdGenerator = universities[_universityId].courseIdGenerator;\r\n            return courseIdGenerator;\r\n    }\r\n    \r\n    \r\n    /// @author Jafett Sandi\r\n    /// @notice Get the owner of a university\r\n    /// @param _universityId The id of the University\r\n    /// @return universityOwner Address of the university owner\r\n    function getUniversityOwner (uint _universityId) public view returns(address universityOwner){\r\n            universityOwner = universities[_universityId].UniversityOwner;\r\n            return universityOwner;\r\n    }\r\n    \r\n    \r\n   /// @author Jafett Sandi\r\n    /// @notice Get the details of a university course\r\n    /// @param _universityId The id of the University\r\n    /// @param _courseId The courseId of the course\r\n    /// @return All information about a course\r\n    function getUniversityCourse(uint _universityId, uint _courseId) \r\n    public view \r\n    returns(\r\n        uint universityId,\r\n        uint courseId,\r\n        string memory courseName, \r\n        uint cost, \r\n        bool active, \r\n        uint activeStudents, \r\n        uint seatsAvailable, \r\n        uint totalSeats,\r\n        uint balance){\r\n            courseName = universities[_universityId].courses[_courseId].courseName;\r\n            courseId = universities[_universityId].courses[_courseId].id;\r\n            cost = universities[_universityId].courses[_courseId].cost;\r\n            active = universities[_universityId].courses[_courseId].active;\r\n            activeStudents = universities[_universityId].courses[_courseId].activeStudents;\r\n            seatsAvailable = universities[_universityId].courses[_courseId].seatsAvailable;\r\n            totalSeats = universities[_universityId].courses[_courseId].totalSeats;            \r\n            balance = universities[_universityId].courses[_courseId].courseBalance;            \r\n        \r\n            return (universityId, courseId, courseName, cost, active, activeStudents, seatsAvailable, totalSeats,balance);\r\n        }\r\n        \r\n        \r\n    /// @author Jafett Sandi\r\n    /// @notice Toggles the state of a course\r\n    /// @param _universityId The id of the University\r\n    /// @param _courseId The id of the course\r\n    /// @param _state The state to toggle the course\r\n    function toggleActiveCourse(uint _universityId, uint _courseId, bool _state) public {\r\n        universities[_universityId].courses[_courseId].active = _state;\r\n    }\r\n    \r\n    /// @author Jafett Sandi\r\n    /// @notice Gets a platform member information\r\n    /// @param _address The address of the member\r\n    /// @return All information about a platform member\r\n    function getPlatformMember(address _address)\r\n    public view\r\n    returns (\r\n        uint id, \r\n        string memory fullname, \r\n        string memory email, \r\n        address  userAddress, \r\n        bool isUnivOwner)\r\n    {\r\n        fullname = platformUsers[_address].fullName;\r\n        email = platformUsers[_address].email;\r\n        id = platformUsers[_address].id;\r\n        userAddress = platformUsers[_address].userAddress;\r\n        \r\n        isUnivOwner = platformUsers[_address].isUniversityOwner;\r\n        return (id, fullname, email, userAddress, isUnivOwner);\r\n    }\r\n\r\n\r\n    /*\r\n    Roles and membership\r\n    */\r\n\r\n    /// @author Jafett Sandi\r\n    /// @notice Adds an owner to the platform\r\n    /// @param _ownerAddr The address of the member\r\n    /// @param _universityId The id of the University\r\n    /// @param _name The name of the owner of the University\r\n    /// @param _email The email address of the member\r\n    /// @return bool\r\n    function addUniversityOwner(address payable _ownerAddr, uint _universityId, string memory _name, string memory _email)\r\n    public onlyOwner\r\n    validAddress(_ownerAddr)\r\n    returns (bool)\r\n    {\r\n        PlatformMember memory newPlatformMember;\r\n        newPlatformMember.fullName = _name;\r\n        newPlatformMember.email = _email;\r\n        newPlatformMember.id = UserIdGenerator;\r\n        newPlatformMember.isUniversityOwner = true;\r\n        newPlatformMember.userAddress = _ownerAddr;\r\n        \r\n        universityOwners.add(_ownerAddr);\r\n\r\n        platformUsers[_ownerAddr] = newPlatformMember;\r\n        UserIdGenerator += 1;\r\n\r\n        universities[_universityId].UniversityOwner = _ownerAddr;\r\n        universities[_universityId].open = true;\r\n        \r\n        mapUniversity[_ownerAddr] = universities[_universityId];\r\n    \r\n        platformUsersList.push(_ownerAddr);\r\n\r\n        return true;\r\n    }\r\n\r\n\r\n    /// @author Jafett Sandi\r\n    /// @notice Registers a new user into the Platform - Owner or Student\r\n    /// @param _addr The address of the member\r\n    /// @param _name The name of the member\r\n    /// @param _email The email address of the member\r\n    /// @return bool\r\n    function addStudent(address _addr, string memory _name, string memory _email) public\r\n    validAddress(_addr)\r\n    returns (bool)\r\n    {\r\n        PlatformMember memory newPlatformMember;\r\n        newPlatformMember.fullName = _name;\r\n        newPlatformMember.email = _email;\r\n        newPlatformMember.id = UserIdGenerator;\r\n        students.add(_addr);\r\n        newPlatformMember.isUniversityOwner = false;\r\n\r\n        platformUsers[_addr] = newPlatformMember;\r\n        UserIdGenerator += 1;\r\n        return true;\r\n    }\r\n\r\n    function getCourseBalance(uint _univId ,uint _courseId) public view returns (uint){\r\n        return universities[_univId].courses[_courseId].courseBalance;\r\n    }\r\n\r\n    /*\r\n    Students specific functions\r\n    - Buy/Pay course\r\n    */\r\n\r\n    /// @author Jafett Sandi\r\n    /// @notice Buy a course\r\n    /// @param _uniId The id of the university\r\n    /// @param _courseId The id of the course\r\n    /// @param _quantity The number of seats to buy\r\n    function buyCourse(uint _uniId, uint _courseId, uint _quantity)\r\n    public payable\r\n    //isStudent(msg.sender)\r\n    //checkValue(_uniId, _courseId, _quantity, msg.sender)\r\n    paidEnough(_uniId, _courseId, _quantity)\r\n    checkActive(_uniId, _courseId)\r\n    {\r\n        universities[_uniId].courses[_courseId].courseBalance += msg.value;\r\n        universities[_uniId].courses[_courseId].seatsAvailable -= _quantity;\r\n    }\r\n\r\n    /// @author Jafett Sandi\r\n    /// @notice Withdraw the course funds\r\n    /// @param _uniId The id of the university\r\n    /// @param _courseId The id of the course    \r\n    function withdrawCourseFunds(uint _uniId, uint _courseId)\r\n    public payable\r\n    {\r\n        require(msg.sender ==  universities[_uniId].courses[_courseId].courseOwner, \"Need to be the course owner\");\r\n        uint courseBalance = universities[_uniId].courses[_courseId].courseBalance;\r\n        universities[_uniId].courses[_courseId].courseBalance = 0;\r\n        msg.sender.transfer(courseBalance);\r\n    }\r\n}",
  "sourcePath": "G:/Personal/ConsenSys/FinalProjectA2/Jaffet/contracts/EducationPlatform.sol",
  "compiler": {
    "name": "solc",
    "version": "0.5.12+commit.7709ece9.Emscripten.clang"
  },
  "schemaVersion": "3.0.19",
  "updatedAt": "2020-01-22T06:50:05.187Z",
  "networkType": "ethereum",
  "devdoc": {
    "author": "Jafett Sandi",
    "details": "All function calls are currently implemented without side effects",
    "methods": {
      "addCourse(uint256,string,uint256,uint256)": {
        "author": "Jafett Sandi",
        "params": {
          "_cost": "Thecost of the course",
          "_courseName": "The name of the course",
          "_seatsAvailable": "The seatsAvailablefor the course",
          "_universityId": "The id of the University"
        },
        "return": "true"
      },
      "addStudent(address,string,string)": {
        "author": "Jafett Sandi",
        "params": {
          "_addr": "The address of the member",
          "_email": "The email address of the member",
          "_name": "The name of the member"
        },
        "return": "bool"
      },
      "addUniversity(string,string,string,string)": {
        "author": "Jafett Sandi",
        "params": {
          "_description": "The description of the University",
          "_name": "The name of the University",
          "_phoneNumber": "The PhoneNumber of the University",
          "_website": "The website URL of the University"
        }
      },
      "addUniversityOwner(address,uint256,string,string)": {
        "author": "Jafett Sandi",
        "params": {
          "_email": "The email address of the member",
          "_name": "The name of the owner of the University",
          "_ownerAddr": "The address of the member",
          "_universityId": "The id of the University"
        },
        "return": "bool"
      },
      "buyCourse(uint256,uint256,uint256)": {
        "author": "Jafett Sandi",
        "params": {
          "_courseId": "The id of the course",
          "_quantity": "The number of seats to buy",
          "_uniId": "The id of the university"
        }
      },
      "getCourseId(uint256)": {
        "author": "Jafett Sandi",
        "params": {
          "_universityId": "The id of the University"
        },
        "return": "courseId"
      },
      "getOwnerCourseByAddress(address,uint256)": {
        "author": "Jafett Sandi",
        "params": {
          "_courseId": "The id of the course",
          "_ownerAddress": "The address of the owner of the course"
        },
        "return": "courseName, cost, active, activeStudents, seatsAvailable, totalSeats"
      },
      "getPlatformMember(address)": {
        "author": "Jafett Sandi",
        "params": {
          "_address": "The address of the member"
        },
        "return": "All information about a platform member"
      },
      "getUniversity(uint256)": {
        "author": "Jafett Sandi",
        "params": {
          "_uniId": "The id of the University"
        },
        "return": "_uniId, name, description, website, phone"
      },
      "getUniversityCourse(uint256,uint256)": {
        "author": "Jafett Sandi",
        "params": {
          "_courseId": "The courseId of the course",
          "_universityId": "The id of the University"
        },
        "return": "All information about a course"
      },
      "getUniversityOwner(uint256)": {
        "author": "Jafett Sandi",
        "params": {
          "_universityId": "The id of the University"
        },
        "return": "universityOwner Address of the university owner"
      },
      "isOwner()": {
        "details": "Returns true if the caller is the current owner."
      },
      "owner()": {
        "details": "Returns the address of the current owner."
      },
      "renounceOwnership()": {
        "details": "Leaves the contract without owner. It will not be possible to call `onlyOwner` functions anymore. Can only be called by the current owner.     * NOTE: Renouncing ownership will leave the contract without an owner, thereby removing any functionality that is only available to the owner."
      },
      "toggleActiveCourse(uint256,uint256,bool)": {
        "author": "Jafett Sandi",
        "params": {
          "_courseId": "The id of the course",
          "_state": "The state to toggle the course",
          "_universityId": "The id of the University"
        }
      },
      "transferOwnership(address)": {
        "details": "Transfers ownership of the contract to a new account (`newOwner`). Can only be called by the current owner."
      },
      "updateCourse(uint256,uint256,string,uint256,uint256,bool)": {
        "author": "Jafett Sandi",
        "params": {
          "_cost": "Thecost of the course",
          "_courseId": "The id of the course to update",
          "_courseName": "The name of the course",
          "_isActive": "Is the course active?",
          "_seatsAvailable": "The seatsAvailablefor the course",
          "_universityId": "The id of the University"
        },
        "return": "true"
      },
      "withdrawCourseFunds(uint256,uint256)": {
        "author": "Jafett Sandi",
        "params": {
          "_courseId": "The id of the course    ",
          "_uniId": "The id of the university"
        }
      }
    },
    "title": "Online Educational Platform"
  },
  "userdoc": {
    "methods": {
      "addCourse(uint256,string,uint256,uint256)": {
        "notice": "Adds a course to a University"
      },
      "addStudent(address,string,string)": {
        "notice": "Registers a new user into the Platform - Owner or Student"
      },
      "addUniversity(string,string,string,string)": {
        "notice": "Adds a University to the platform"
      },
      "addUniversityOwner(address,uint256,string,string)": {
        "notice": "Adds an owner to the platform"
      },
      "buyCourse(uint256,uint256,uint256)": {
        "notice": "Buy a course"
      },
      "getCourseId(uint256)": {
        "notice": "Used to generate a courseId"
      },
      "getOwnerCourseByAddress(address,uint256)": {
        "notice": "Gets a course based on an address and CourseId"
      },
      "getPlatformMember(address)": {
        "notice": "Gets a platform member information"
      },
      "getUniversity(uint256)": {
        "notice": "Get University details"
      },
      "getUniversityCourse(uint256,uint256)": {
        "notice": "Get the details of a university course"
      },
      "getUniversityOwner(uint256)": {
        "notice": "Get the owner of a university"
      },
      "toggleActiveCourse(uint256,uint256,bool)": {
        "notice": "Toggles the state of a course"
      },
      "updateCourse(uint256,uint256,string,uint256,uint256,bool)": {
        "notice": "Updates a course's information"
      },
      "withdrawCourseFunds(uint256,uint256)": {
        "notice": "Withdraw the course funds"
      }
    },
    "notice": "This contracts is not intended for Production use yet."
  }
}